:020000040800F2
:1000000030040020C90000080302000801020008B3
:1000100000000000000000000000000000000000E0
:1000200000000000000000000000000001040008C3
:100030000000000000000000550200080304000852
:10004000F900000800000000F9000008F9000008AD
:10005000F9000008F9000008F9000008F90000089C
:1000600000000000F9000008F9000008F90000088D
:10007000F9000008F9000008F9000008000000007D
:10008000F90000080000000000000000F90000086E
:10009000F9000008F9000008F9000008F90000085C
:1000A000F9000008F9000008F900000865040008DC
:1000B000F90000080348854600F048F8004800476A
:1000C0003D080008300400200C4880F308880C48E4
:1000D0000168090E0B4A914205D10B480B4901609A
:1000E0000B480C4901600C4880470C480047FEE76C
:1000F000FEE7FEE7FEE7FEE7FEE700003004002033
:10010000040000001F000000181002400100000061
:10011000000001400000000005040008B5000008D0
:1001200030B50B46014600202022012409E00D468F
:10013000D5409D4205D31D469540491B2546954017
:1001400040191546521E002DF1DC30BD064C01252C
:10015000064E05E0E36807CC2B430C3C984710346F
:10016000B442F7D3FFF7AAFF4C0800086C08000858
:10017000F0B50022012423460D6893401D409D42A6
:100180002AD10D79012D01D0022D12D18768550099
:100190000326AE40B74387604E79AE4085682E4354
:1001A000866085889D43858085888B7993401D4333
:1001B0008580066855000323AB409E4306600E7998
:1001C0000768AE403E430660C6689E43C660CB7972
:1001D000AB40C5682B43C360521C102ACBD3F0BD83
:1001E0004B07DB0E9A40C90810B589000818016A50
:1001F0000F249C40A1430162016A1143016210BDBA
:10020000FEE7704730B5837801210278002B15D0C6
:1002100094080E4BA400E41823689207D50EFF2221
:10022000AA40934342789207120EAA401A432260D2
:100230000078C006C00E8140054804E0D006C00E1C
:10024000814003488030016030BD000000E400E0E0
:1002500000E100E070470000044A0029516901D024
:10026000014300E0814351617047000000100240EB
:10027000044A0029916901D0014300E08143916162
:100280007047000000100240F8B5564D04466868FB
:1002900000210C22544E104005D0042803D0082819
:1002A00003D00C281AD026601AE069686868032217
:1002B0008902D2030F0F1040BF1C00280AD0E86A41
:1002C0000107090F3046491CFFF72AFF7843014612
:1002D000216005E0454839464143F9E7444820603C
:1002E0006868444F0006000F3B5C20680246DA4015
:1002F00062606B685B055B0FFB5CDA40A2602B6B96
:10030000DB0501D43C4B05E06B685B0401D453086A
:1003100000E09308E3602B6B5F06384B03D4374F44
:100320001237276100E023612F6BFF0601D466615D
:1003300000E060612F6BBF070ED02F6BBF07BF0FB0
:10034000012F0BD02F6BBF07BF0F022F08D02F6BD1
:10035000FF43BF0706D006E0A26104E0A06102E00F
:10036000A36100E0A6612F6BBF03BF0F0FD02F6BFF
:10037000BF03BF0F012F0CD02F6BBF03BF0F022F86
:1003800009D02F6BBF03BF0F032F06D006E0E26139
:1003900004E0E06102E0E36100E0E6612F6B3F030F
:1003A000BF0F0FD02A6B1203920F012A0CD0286BBB
:1003B0000003800F022809D0286B0003800F032858
:1003C00006D006E0226204E0206202E0236200E040
:1003D0002662286B000602D405486062F8BD61629F
:1003E000F8BD00000010024000127A0000093D0034
:1003F000006CDC0200000020809FD500008000001F
:100400007047704710B5144801680122114301601C
:100410004168124A114041600168114A114001606F
:100420000168012292049143016041683F22120455
:1004300091434160C16A09090901C162016BFF2250
:10044000543291430163416B4908490041630021E3
:10045000816000F0BBF810BD001002400CB8FF082E
:10046000FFFFF6FE10B5084C0649204600F021F8C3
:10047000012806D1204600F0A1F8C1B2034800F0DF
:100480000DF910BD050105000038014014000020E1
:100490000029016802D00122114301E04908490006
:1004A000016070470246D26900200A4200D0012054
:1004B000704730B50A04130E0122144600258C4003
:1004C000012B0ED0022B0ED08368090C2340C0698B
:1004D0008A401040002B02D0002800D00125284679
:1004E00030BD0368F1E74368EFE710B50B041C0E5D
:1004F00001238B40022C02D0032C02D002E0001D0D
:1005000000E008300168002A01D0194300E0994357
:10051000016010BD30B5044600688BB00D46400840
:10052000400020606068032109038843A9680143F3
:10053000616020681C49EA680840696811432A69BB
:10054000024311432160A0680321090288436969BD
:100550000143A1606846FFF797FE1448844201D129
:1005600006980AE01248844201D1079805E0114834
:10057000844201D1089800E00298216809042968A2
:1005800000D54000FFF7CCFD2A6852088A4200D807
:10059000401C2168090404D50107074A490F10408F
:1005A0000843A0810BB030BDF3E9FFFF00380140E4
:1005B0000044004000480040F0FF0000808CC0056F
:1005C000C00D7047C905C90D018570471CB50021D4
:1005D000224801910091026801231B041A43026022
:1005E0005B000522120304681C400094019C641CFB
:1005F0000194009C002C02D1019C9442F3D102682A
:10060000920328D501210091154A112111604168FA
:1006100041604168416041687F22D203914341605B
:10062000416811221204114341600168012212063F
:100630001143016001688901FCD54168890889007E
:100640004160416802221143416041680907890FF6
:100650000229FAD11CBD00911CBD0000001002400F
:100660000020024010B504A1064800F099F87D2052
:10067000C00000F0C5F810BD48454C4C4F2021216A
:10068000210000001400002010B5E12109020248F9
:1006900000F012F810BD00001400002010B5027820
:1006A0004378521C1207120F934203D00478831C24
:1006B000E154027010BD0000F0B50E46012189B072
:1006C0004804FFF7C9FD01218803FFF7D1FD092781
:1006D000FF06012202213846FFF782FD0122032195
:1006E0003846FFF77DFD02206946087103204871F6
:1006F00000248C710125CD71042000903846FFF74D
:1007000037FD0820009069463846FFF731FD039613
:100710000C200E4E079004940594069403A90894A7
:100720003046FFF7F7FE1B20694608724C728D7247
:1007300002A8FFF767FD01213046FFF7A9FE01225D
:1007400003493046FFF7D1FE09B0F0BD0038014043
:100750000501050070B50D460646002404E030464C
:1007600000F008F8641CE4B2295D0029F7D12046A6
:1007700070BD000070B5084D2846FFF723FF074EF7
:10078000002440212846FFF78DFE002802D1641C7A
:10079000B442F6DB70BD000000380140A0860100C5
:1007A00070B50546FFF7D6FF044603A12846FFF7BC
:1007B000D1FF2018C0B270BD0D0A000002E008C8C9
:1007C000121F08C1002AFAD170477047002001E0CB
:1007D00001C1121F002AFBD17047000000B58BB089
:1007E0006846FFF751FD04490098FFF799FC03495B
:1007F00008600BB000BD000040420F001000002058
:1008000070B500247D260546F60003E0304600F072
:1008100005F8641CAC42F9D370BD000010B5064960
:10082000096848430621FFF77BFC002101E000BF77
:10083000491C8142FBD310BD10000020FFF7CEFF02
:10084000FFF722FFFFF70EFFFCE700006C0800082F
:100850000000002014000000BC0700088008000809
:10086000140000201C040000CC0700080000000059
:100870000102030401020304060708090000000046
:04000005080000B53A
:00000001FF
