:020000040800F2
:1000000058040020C90000085B02000859020008DB
:1000100000000000000000000000000000000000E0
:100020000000000000000000000000006105000862
:100030000000000000000000AD0200086305000899
:10004000F900000800000000F9000008F9000008AD
:10005000F9000008F9000008F9000008F90000089C
:1000600000000000F9000008F9000008F90000088D
:10007000F9000008F9000008F9000008000000007D
:10008000F90000080000000000000000F90000086E
:10009000F9000008F9000008F9000008F90000085C
:1000A000F9000008F9000008F9000008C50500087B
:1000B000F90000080348854600F06EF80048004744
:1000C000C90D0008580400200C4880F308880C482B
:1000D0000168090E0B4A914205D10B480B4901609A
:1000E0000B480C4901600C4880470C480047FEE76C
:1000F000FEE7FEE7FEE7FEE7FEE70000580400200B
:10010000040000001F000000181002400100000061
:10011000000001400000000065050008B50000086F
:1001200030B50B46014600202022012409E00D468F
:10013000D5409D4205D31D469540491B2546954017
:1001400040191546521E002DF1DC30BD70B500245B
:100150002546002801DA01244042002901DA012560
:100160004942FFF7DDFFAC4200D04042002C00D0F6
:10017000494270BD03460B439B0703D009E008C901
:10018000121F08C0042AFAD203E00B780370401C47
:10019000491C521EF9D27047064C0125064E05E057
:1001A000E36807CC2B430C3C98471034B442F7D398
:1001B000FFF784FFD80D0008F80D0008F0B5002205
:1001C000012423460D6893401D409D422AD10D799C
:1001D000012D01D0022D12D1876855000326AE40B3
:1001E000B74387604E79AE4085682E438660858828
:1001F0009D43858085888B7993401D438580066863
:1002000055000323AB409E4306600E790768AE405D
:100210003E430660C6689E43C660CB79AB40C56866
:100220002B43C360521C102ACBD3F0BD4B07DB0E0F
:100230009A40C90810B589000818016A0F249C402B
:10024000A1430162016A1143016210BD002A01D07D
:100250008161704701857047FEE7704730B583784C
:1002600001210278002B15D094080E4BA400E4184D
:1002700023689207D50EFF22AA4093434278920743
:10028000120EAA401A4322600078C006C00E8140B8
:10029000054804E0D006C00E81400348803001606C
:1002A00030BD000000E400E000E100E07047000025
:1002B000044A0029516901D0014300E081435161A2
:1002C0007047000000100240044A0029116901D063
:1002D000014300E0814311617047000000100240BB
:1002E000044A0029916901D0014300E081439161F2
:1002F0007047000000100240044A0029D16801D074
:10030000014300E08143D1607047000000100240CB
:10031000F8B5564D0446686800210C22544E104032
:1003200005D0042803D0082803D00C281AD0266052
:100330001AE06968686803228902D2030F0F10402F
:10034000BF1C00280AD0E86A0107090F3046491C83
:10035000FFF7E6FE78430146216005E0454839464F
:100360004143F9E7444820606868444F0006000FA5
:100370003B5C20680246DA4062606B685B055B0F9D
:10038000FB5CDA40A2602B6BDB0501D43C4B05E043
:100390006B685B0401D4530800E09308E3602B6BA7
:1003A0005F06384B03D4374F1237276100E02361D3
:1003B0002F6BFF0601D4666100E060612F6BBF0701
:1003C0000ED02F6BBF07BF0F012F0BD02F6BBF07B6
:1003D000BF0F022F08D02F6BFF43BF0706D006E0E8
:1003E000A26104E0A06102E0A36100E0A6612F6BBE
:1003F000BF03BF0F0FD02F6BBF03BF0F012F0CD058
:100400002F6BBF03BF0F022F09D02F6BBF03BF0F8E
:10041000032F06D006E0E26104E0E06102E0E36160
:1004200000E0E6612F6B3F03BF0F0FD02A6B120372
:10043000920F012A0CD0286B0003800F022809D0EC
:10044000286B0003800F032806D006E0226204E038
:10045000206202E0236200E02662286B000602D4DC
:1004600005486062F8BD6162F8BD000000100240FE
:1004700000127A0000093D00006CDC02010000203F
:10048000809FD5000080000040220029018801D013
:10049000114300E0914301807047C94301817047D7
:1004A0000D4910B5884209D1841401212046FFF777
:1004B00023FF00212046FFF71FFF10BD0749884298
:1004C000FBD1041401212046FFF7FEFE0021204647
:1004D000FFF7FAFE10BD0000003001400038004078
:1004E0000246128900200A4200D001207047000015
:1004F00030B50388C122920113400A88CC890D8946
:100500002243CC882C4322434C8922438C892243AA
:100510001A4302808288094B1A408B8813438380D8
:100520000A8A02820288042349889A43114301807F
:10053000818B034A1140818330BD0000FFF0000031
:10054000FFF70000007B70478288034B1A408280CF
:1005500082880A4382807047FFEF00000173704772
:100560007047704710B514480168012211430160BB
:100570004168124A114041600168114A114001600E
:100580000168012292049143016041683F221204F4
:1005900091434160C16A09090901C162016BFF22EF
:1005A000543291430163416B490849004163002182
:1005B000816000F0E9F810BD001002400CB8FF089F
:1005C000FFFFF6FE10B5084C0649204600F021F862
:1005D000012806D1204600F0A1F8C1B2034800F07E
:1005E00027FA10BD05010500003801402000002059
:1005F0000029016802D00122114301E049084900A5
:10060000016070470246D26900200A4200D00120F2
:10061000704730B50A04130E0122144600258C40A1
:10062000012B0ED0022B0ED08368090C2340C06929
:100630008A401040002B02D0002800D00125284617
:1006400030BD0368F1E74368EFE710B50B041C0EFB
:1006500001238B40022C02D0032C02D002E0001DAB
:1006600000E008300168002A01D0194300E09943F6
:10067000016010BD30B5044600688BB00D464008DF
:10068000400020606068032109038843A968014392
:10069000616020681C49EA680840696811432A695A
:1006A000024311432160A06803210902884369695C
:1006B0000143A1606846FFF72BFE1448844201D134
:1006C00006980AE01248844201D1079805E01148D3
:1006D000844201D1089800E0029821680904296841
:1006E00000D54000FFF71CFD2A6852088A4200D856
:1006F000401C2168090404D50107074A490F10402E
:100700000843A0810BB030BDF3E9FFFF0038014082
:100710000044004000480040F0FF0000808CC0050D
:10072000C00D7047C905C90D01857047102802D258
:100730000920C006704701461039102901D20D4822
:10074000704701462039102901D20B4870470146F5
:100750003039102901D20948704701464039102923
:1007600001D207487047502801D906487047002039
:10077000704700000004004800080048000C0048D2
:1007800000100048001400481CB5002122480191C7
:100790000091026801231B041A4302605B000522DA
:1007A000120304681C400094019C641C0194009C8A
:1007B000002C02D1019C9442F3D10268920328D507
:1007C00001210091154A1121116041684160416881
:1007D000416041687F22D203914341604168112208
:1007E00012041143416001680122120611430160A5
:1007F00001688901FCD54168890889004160416828
:1008000002221143416041680907890F0229FAD188
:100810001CBD00911CBD00000010024000200240E1
:1008200003460120002202E05843521CD2B28A4201
:10083000FAD3704770B50C46054600F0D7F803466A
:100840002846FFF773FF22461946FFF7FFFC70BDED
:1008500010B504460A20FFF7E3FF0146204600F0EA
:1008600093F8FFF773FC0A21FFF770FCC8B210BDC4
:1008700010B50024002800DA4042641CE4B20A21CA
:10088000FFF764FC0028F8DC204610BD00B50246E6
:10089000FFF74CFF0921C906884202D1012040041C
:1008A00000BD1046FFF742FF1449884201D1000203
:1008B00000BD1046FFF73AFF1149884201D10002FE
:1008C00000BD1046FFF732FF0E49884202D10120D9
:1008D000000500BD1046FFF729FF0B49884201D1F2
:1008E000400200BD1046FFF721FF0849884202D1AF
:1008F0000120800500BD002000BD0000000400486C
:1009000000080048000C004800100048001400488F
:1009100010B500210320FFF78DFF0D4800F0A2F96C
:100920000C4801784A1C0270094800F0DDF90146C4
:10093000094800F003F9064800F02AF901210320D4
:10094000FFF778FF7D20C00000F020FA10BD000006
:1009500038000020000000202000002010B50848CA
:1009600000F090F9E1210902064800F06FF801213A
:10097000032000F00DF801210320FFF75BFF10BDFD
:100980003800002020000020002800DA4042704794
:1009900070B50E46054600F029F8134A0024106091
:1009A0000120330000F0C4F9050A040D0F071200FE
:1009B000107194710AE01071907107E01471D47194
:1009C00004E0147101E014710220D0712846FFF791
:1009D0005DFF0121FFF76CFC2846FFF7A7FE0249E7
:1009E000FFF7ECFB70BD000014000020012110286F
:1009F00001D281400DE00246103A102A08D3103A85
:100A0000102A05D3103A102A02D3103A102A02D223
:100A1000914088B27047502801D95038E9E700204A
:100A2000704700210180202242808180C180704770
:100A300010B502784378521C1207120F934203D06C
:100A40000478831CE154027010BD0000F0B50E461E
:100A5000012189B04804FFF72BFC01218803FFF72F
:100A60003FFC0921CF0601223846FFF7DFFB0122B8
:100A70000A213846FFF7DAFB022069460871032095
:100A80004871002401258C71CD71680200903846B0
:100A9000FFF794FBA802009069463846FFF78EFBEB
:100AA00003960C200E4E079004940594069403A917
:100AB00008943046FFF7DEFD1B20694608724C7231
:100AC0008D7202A8FFF7CAFB01213046FFF790FDA7
:100AD000012204493046FFF7B8FD09B0F0BD00001F
:100AE000003801400501050070B50D46064600249A
:100AF00004E0304600F008F8641CE4B2295D0029E7
:100B0000F7D1204670BD000070B5084D2846FFF7AC
:100B100009FE074E002440212846FFF773FD0028F8
:100B200002D1641CB442F6DB70BD00000038014005
:100B3000A086010010B5FFF7E7FF10BD10B500F06B
:100B400001F810BD70B50D00064602D52D21FFF746
:100B5000DBFF00240FE02846FFF78AFE001B401E43
:100B6000C1B22846FFF774FE3030C1B23046FFF7FD
:100B7000E1FF641CE4B22846FFF77AFEA042EAD8FF
:100B800002A13046FFF7B0FF70BD00000D0A000063
:100B900010B5134C01212046FFF77FFC02212046AF
:100BA000FFF77BFC04212046FFF777FC0821204655
:100BB000FFF773FC10212046FFF76FFC2021204631
:100BC000FFF76BFC40212046FFF767FC80212046A1
:100BD000FFF763FCA1152046FFF75FFC10BD000086
:100BE00000300140F7B5012104460E033046FFF7FF
:100BF00077FB1A4D2846FFF753FC00202081072081
:100C00000002A08168460089E08168464089208210
:100C1000681560826846C088A08268468088E08245
:100C200007202083FF2005306081214608312846B7
:100C3000FFF75EFC31462846FFF786FC0121284677
:100C4000FFF722FC064E002480212846FFF748FCCF
:100C5000002802D0641CB442F6DBFEBD0030014027
:100C6000A08601001FB5044602A8FFF7DAFE014680
:100C700008226846FFF77EFA2046019A0099FFF79E
:100C8000B1FF1FBD70B5044601214804FFF710FBFA
:100C90000926F606002205213046FFF7C7FA002292
:100CA00007213046FFF7C2FA002206213046FFF73F
:100CB000BDFA022020710020A071E071012565714C
:100CC0002020206021463046FFF778FA80202060FF
:100CD00021463046FFF772FA40202060E571214638
:100CE0003046FFF76BFA70BDF8B50F4E0F4D0F464B
:100CF000002402213046FFF7F3FB002802D1641CD8
:100D0000AC42F6DB39463046FFF728FC00240121CF
:100D10003046FFF7E5FB002802D1641CAC42F6DB4D
:100D20003046FFF70FFCF8BD00300140A0860100FF
:100D300030B47446641E2578641CAB4200D21D4654
:100D4000635D5B00E31830BC184702E008C8121F5F
:100D500008C1002AFAD170477047002001E001C1A4
:100D6000121F002AFBD1704700B58BB06846FFF711
:100D7000CFFA04490098FFF7D3F9034908600BB094
:100D800000BD000040420F001C00002070B5002490
:100D90007D260546F60003E0304600F005F8641CA9
:100DA000AC42F9D370BD000010B50649096848434C
:100DB0000621FFF7B5F9002101E000BF491C81427F
:100DC000FBD310BD1C000020FFF7CEFFFFF7C6FDD0
:100DD000FFF79EFDFCE70000F80D00080000002072
:100DE000200000004A0D0008180E00082000002016
:100DF000380400005A0D00080A0000000001020338
:100E000004010203040607080900000000000000B6
:080E10000001000000000000D9
:04000005080000B53A
:00000001FF
